:04000005606008052A
:02000004603862
:1004000000D00F24252F3908B90C390801F038081D
:10041000A10C3908CB5138083934390800000000E4
:1004200000000000000000000000000065850524B9
:1004300000000000000000000385052499830524C6
:1004400057F1380857F1380857F1380857F138088C
:1004500057F1380857F1380857F1380857F138087C
:1004600057F1380857F1380857F1380857F138086C
:1004700057F1380857F1380857F1380857F138085C
:1008000057F1380800F002F800F0E6F814A696E870
:10081000000CB244B344DA4501D100F0DDF8BAE887
:100820000F000FA696E83000A5EB040504EB0607C1
:10083000AAEB0704A7F101074FEA15154FEA341494
:10084000A4F10104AC4201D300F0C6F813F0010F8B
:1008500018BFFB1A43F0010300F001F8DBE718476B
:1008600010F2100040F210000A444FF0000C10F893
:10087000013B13F0070408BF10F8014B1D1108BF1E
:1008800010F8015B641E05D010F8016B641E01F8BE
:10089000016BF9D113F0080F1EBF10F8014BAD1C0E
:1008A0000C1B09D16D1E58BF01F801CBFAD505E02C
:1008B00014F8016B01F8016B6D1EF9D59142D6D386
:1008C00070470000103A24BF78C878C1FAD85207A0
:1008D00024BF30C830C144BF04680C6070470000BA
:1008E000704700000023002400250026103A28BF8E
:1008F00078C1FBD8520728BF30C148BF0B60704792
:100900006E2901F02383702900F0098466293DF0E7
:10091000D4A765293DF0D1A767293DF0CEA761296D
:100920003DF0CDA703681B0A28BF41F0800169296B
:1009300000F03C83642900F03983752900F0368388
:100940006F2901F0F385782900F0D583E92900F0BB
:100950006983E42900F06683F52900F06383EF29B9
:1009600001F0F085F82900F0D4830368DB0928BF83
:1009700041F08001632901F03A85732901F03F8538
:10098000E32902F0C384F32902F0C88400207047F1
:100990001FB57DF07DFF0B480B4901F0E4F900F035
:1009A00050FE01F0C1F90400002000217DF08AF919
:1009B000401C6060002000217DF09AF9E06002F0A8
:1009C000BBF91FBD88040C2400C00F2410B502F031
:1009D0002BFA03F00DF810BDDFF814D003B47CF04F
:1009E000DFFC03BCFFF7D4FF38F088F903F0AEFA60
:1009F00000D00F2403B4FFF7E9FF03BC7CF0D5FC63
:100A00000B49D1F800C04A685CF8043B10681844F0
:100A100042F8040B8C4528BFA1F1DC0C8A4228BFA8
:100A2000A1F1DC02C1F800C04A6020F0004070472C
:100A300078D80A247047000010B501F075F9001D40
:100A400010BD00BF81D2070070B5A0FB0140B4F11A
:100A5000805170F1000024BF002070BD204600F0DE
:100A600050F805001CBF214600F0D1FF284670BD9C
:100A70000844401E491E884370470821001DF7E7BF
:100A80002DE9F04117460E460446FFF7F6FFA04257
:100A9000054633D9002F1CBF06F108007CF08AFC04
:100AA00030467468F4B12168A94217D305F10802F1
:100AB00091423CBF6168416007D3626861194A6036
:100AC0002268521B0A6041602560002F1CBF06F19E
:100AD00008007CF074FC201DBDE8F08120466468AD
:100AE000002CE0D12946304601F029F90028D7D161
:100AF000002F1CBF06F108007CF061FC0020BDE85F
:100B0000F08110B5044601F00AF901682046BDE8FD
:100B100010400122B4E770B516460D46041F0028A8
:100B200008BF70BD002E1CBF05F108007CF042FC20
:100B30002B465868002818BFA04238BF0346F8D398
:100B40001968CA18A24218BF5C6003D122681C460B
:100B50001144196021680A19824218BF606004D1EB
:100B600042686260006808442060002E1CBF05F1E6
:100B700008007CF024FC70BD10B5044601F0CFF8ED
:100B800001682046BDE810400122C4E70844401E29
:100B9000491E884370470821001DF7E72DE9F04101
:100BA0000F468046041F01F0BAF8066807B3B8F193
:100BB000000F384622D0FFF7EEFFB84205463CBF93
:100BC0000020BDE8F08106F108007CF0F3FB22680C
:100BD000AA4238BF314615D3511B082931D36019B9
:100BE000002240F8041B31462560FFF794FF28E0FF
:100BF0004046FFF7C1FF0020BDE8F081BDE8F041AD
:100C0000FFF77FBF4868002818BFA04238BF0146E1
:100C1000F8D3131983421BD103681A44954217D89D
:100C2000531B082B0AD3436862195360236800687A
:100C30001844401B106025604A6002E02260406852
:100C4000486006F108007CF0BAFB201DBDE8F08189
:100C5000002231463846FFF713FF05000AD041460F
:100C60002068021F284600F048FE00223146201D61
:100C7000FFF751FF06F108007CF0A1FB2846BDE814
:100C8000F08153EA020C00F069802DE9F04B4FF03F
:100C90000006002B1FBFB3FA83F503FA05F424FA0C
:100CA00005F65E4012BF1643B2FA82F502FA05F469
:100CB000C5F120051EBF22FA05FC44EA0C042035CC
:100CC00056EA044C4FEA144418BF641C4FF0000865
:100CD0004FF00009904271EB030C39D3002919BF82
:100CE000B1FA81F701FA07F6B0FA80F700FA07F6D1
:100CF000C7F120071EBF20FA07FC46EA0C06203782
:100D0000B6FBF4FCA7EB0507103F07F01F0BCBF178
:100D100020062CFA06F60CFA0BFB44BFB34600265D
:100D2000202FA4BF5E464FF0000B5BEA060C08BF05
:100D30004FF0010B19EB0B0948EB0608ABFB027CEB
:100D400006FB02CC0BFB03CCC01B71EB0C01C1E713
:100D50000B46024641464846BDE8F08B13B50843B2
:100D600018BF4FF0FF300146AFF30080BDE81C40D4
:100D70007047B2F120030AD5C2F1200301FA02F153
:100D800020FA03F341EA030100FA02F0704700FA87
:100D900003F14FF000007047B2F120030AD5C2F111
:100DA000200320FA02F001FA03F340EA030021FADB
:100DB00002F1704721FA03F04FF00001704753EA47
:100DC000020C23D010B54C1084EA530404D54042E1
:100DD000C1F1000138BF491E1B4204D55242C3F184
:100DE000000338BF5B1EFFF74CFF14F0804F04D0A8
:100DF0004042C1F1000138BF491E14F0004F04D039
:100E00005242C3F1000338BF5B1E10BD13B5404210
:100E10004FF0000070EB0104B8BF012001F0004169
:100E200000281CBF6FF000414FF0FF30AFF300808F
:100E30001CBD10B50446FFF7FFFD0068005DC0064D
:100E400002D504F1200010BD204610BD7CB51D4622
:100E500016460C00009007D04142A14202D3204424
:100E6000401E01E04FF0FF30064B7B442A466946A6
:100E70000190304601F091FA002C02D0009A002136
:100E800011707CBD5D1500000FB4044910B503AAB4
:100E9000029801F0B9FA10BC5DF814FBF4D60A24EC
:100EA0000FB41CB5084B06AA7B4469460090059810
:100EB00001F073FA04460020694601F081FA2046E9
:100EC0001CBC5DF814FB0000151500000FB41CB528
:100ED0000C0007AA009007D04142A14202D320444F
:100EE000401E01E04FF0FF30074B7B446946019004
:100EF000069801F052FA0021002C01D0009A1170DE
:100F00001CBC5DF814FB0000DD14000070B5044645
:100F100085690068C10601D5302600E02026C0079B
:100F200007D070BDD4E9012130469047206A401CAB
:100F300020626D1EF6D570BD70B5044685690078D7
:100F4000C00707D170BDD4E9012120209047206A55
:100F5000401C20626D1EF6D570BD70B50C4605466E
:100F6000012A05D02878800600D5EA69002302E02E
:100F7000012305E05B1C934202D2E05C0028F9D11A
:100F8000A869E618C01AA861286A18442862284689
:100F9000FFF7BCFF04E0D5E9012114F8010B9047ED
:100FA000B442F8D32846FFF7C7FF70BD2DE9F041E2
:100FB0000646002410687529314616A510D000F0A9
:100FC0005AFF002802DA404213A507E031688A0779
:100FD00001D512A502E0490704D511A5012401E0BD
:100FE00000F052FF00210A2206F1240709E0B0FBBD
:100FF000F2FCB0FBF2F302FB1C00303078541846D0
:10100000491C0028F3D123462A463046BDE8F0416A
:1010100000F043BF000000002D0000002B00000086
:10102000200000002DE9F0418046D21D22F0070289
:101030000025D2E90002F52915A614D0011E72F18F
:10104000000106DA0023D0EB030063EB020211A6D5
:1010500008E0D8F800108B0701D50FA602E0490779
:1010600001D50EA601251146002408F1240704E04D
:1010700000F0B1FE30323A55641C50EA0102F7D15B
:101080002B46324621464046BDE8F04100F005BF00
:10109000000000002D0000002B00000020000000D8
:1010A000F0B40D460188090502D5214C7C4402E0CC
:1010B0001F4C7C440E34002100F1240608E002F0AD
:1010C0000F071209E75D42EA03721B097754491CB6
:1010D00052EA0307F3D102780023120704D5702DDA
:1010E00006D009B1022311342246F0BC00F0D5BE6F
:1010F00001231034F8E770B504460D462146106808
:1011000000F0C2FE024629462046BDE8704000239A
:10111000C6E7D21D22F00703D3E90023C0E7036826
:10112000126843F0200303600823C3610023B7E77C
:101130001AD907002DE9F05F894604464FF0000AEE
:10114000DFF874B1FB44C0F820A02046E16888476E
:10115000002874D0252806D0D4E901219047206AC0
:10116000401C2062F1E700265F462046E168884780
:101170002028054607DB312D05D2781910F8200C00
:1011800008B10643F1E7B00701D526F00406C4F81C
:101190001CA00027C4F818A02A2D09D028467CF0EE
:1011A000BAFC38B304EB8708303DC8F8185019E092
:1011B00059F8041B204604EB87029161E1688847D7
:1011C000012F054618D1E069002820DA26F0200614
:1011D0001DE0D8F8180000EB800005EB4000303827
:1011E000C8F818002046E168884705467CF093FC63
:1011F0000028EED1012F0AD02E2D08D12046E1681B
:1012000088477F1C0546022F46F02006C4DBA069F4
:10121000002803DA404246F00106A061F00701D041
:1012200026F010066C2D0BD0682D09D04C2D39D02E
:101230006A2D35D0742D35D07A2D33D016E038E0B4
:10124000E1682F4620468847B842054609D16C2FF1
:1012500026D04FF48060E168064320468847054663
:1012600004E06C2F1AD04FF4807006430DB3A5F143
:101270004100192802D8203546F400664A4629461E
:10128000204626604E46FFF73BFB80B101280BD07D
:10129000F61D26F0070000F1080956E74020E4E7B4
:1012A0008020D8E70020D6E706F104094DE728465C
:1012B00052E7206ABDE8F09FAAD807000FB400B536
:1012C0008DB010A9099000910B904FF0FF300A905B
:1012D00000200C90064878440690064878446A46F8
:1012E00007900F9909A801F0C7FB0DB05DF814FB3A
:1012F000BF170000D71700002DE9FF5F1D464FF014
:10130000FF3B91464FF000085F46D5E90146A969C9
:1013100001987F1C8847296A824688470028F6D1B1
:10132000BAF1FF3F0CD0002E24F4C06419DD600632
:1013300014D5BAF12B0F09D0BAF12D0F0ED103E05D
:10134000584604B0BDE8F09F44F48064A969019850
:101350007F1C8847761E8246002E02DDBAF1300FD0
:1013600003D0B9F1000F26D032E0A969761E0198AA
:101370007F1C44F400748847002E824605DDBAF1D4
:10138000780F06D0BAF1580F03D0B9F1000F10D082
:101390001EE0B9F1000F02D0B9F1100F18D1A96900
:1013A000761E01987F1C24F4007488478246102022
:1013B00002E0082000E00A20814609E0A96908FB54
:1013C0000908761E01987F1C44F400748847824601
:1013D000002E05DD4946504601F0BEF80028EDDA42
:1013E000E96901988847A00502D46FF00100A8E7D9
:1013F000E00725D1600613D5600502D5C8F10000CD
:1014000000E0404629680A1D2A600968220501D5C6
:10141000087015E0220701D5088011E008600FE090
:101420002868011D29600068210502D580F8008028
:1014300006E0210702D5A0F8008001E0C0F8008096
:1014400038467EE72DE9FF5F4FF0000899461446C5
:1014500046469169D2E901A7DDF838B0019888477E
:10146000054659EA0B0005D009E0A1690198761CF0
:1014700088470546216A284688470028F5D1681C18
:1014800003D05FEACA7005D015E04FF0FF3004B01A
:10149000BDE8F09F2068011D2160D0F800800AE0BF
:1014A0005FEACA7001D108F8015BA169761C019856
:1014B0007F1E88470546002F1ADD681C18D0B9F139
:1014C000000F0DD0E81705EBD060421120F01F008F
:1014D00059F822102A1A012090400142E0D107E079
:1014E000BBF1000FDCD12846216A88470028D7D0FD
:1014F000E16901988847BBF1000F07D1002E05DD97
:101500005FEACA7002D1002188F80010A068B842D2
:1015100003DDBBF1000F03D017B16FF00100B6E798
:101520003046B4E72DE9F04791460F468046044621
:10153000002614F8015B2DB1FFF77EFA0068405DCC
:10154000C007F6D12B2D02D02D2D18D0641E4A468F
:101550003946204601F0C0FA27B13968A14201D1CD
:10156000C7F800804FF0020471050BD540420028F7
:1015700003DD00F0DEFB0460A007BDE8F08746F461
:101580008066E4E70028F8DA00F0D3FB04606FF02F
:101590000040F2E7014902F063BD0000F4D60A24DE
:1015A00010B5044603E002F05BFD401C09D014F8BE
:1015B000010B05490028F6D1BDE810400A2002F0D1
:1015C0004FBD4FF0FF3010BDF4D60A242DE9F0478F
:1015D00004464FF0FF380026C568D4E90497A807F1
:1015E00018D0204601F064FB384612F015FF0028A1
:1015F00000DA4646280502D54846FFF7BDFA4C21D9
:10160000204600F026FA206D20F0010020653046CB
:10161000BDE8F0874046FBE70B4910B5A1F17C021D
:101620000A4CC2E93712372106E000EB104342F8BA
:101630002130074B00FB03400B1EA1F10101F4DC3C
:1016400010BD0120E8E7000018D80A24E119D66689
:10165000CD0D010010B5002001F052FCFFF7B6F9E6
:10166000BDE8104001207BF0A0BE401ECAB210F8B9
:10167000011F8A4202D00029F9D10020704710B51D
:1016800004780CB10A4603E0002010BDA342FCD050
:1016900012F8013B002BF9D1401CF1E730B50546AB
:1016A0000B462A4613F8014B12F8010B08B1A04271
:1016B000F8D01CB1002802D06D1CF1E7284630BDDF
:1016C00040EA010310B59B070FD1042A0DD310C8BF
:1016D00008C9121F9C42F8D020BA19BA884201D911
:1016E000012010BD4FF0FF3010BD1AB1D30703D059
:1016F000521C07E0002010BD10F8013B11F8014B0F
:101700001B1B07D110F8013B11F8014B1B1B01D12A
:10171000921EF1D1184610BD10B5431C02E010F81E
:10172000011B71B18107FAD14FF0013202C88C1A46
:101730008C4314EAC211F9D0C01A0A0603D0C01EA5
:1017400010BDC01A10BD0A0401D0801E10BD0902D0
:10175000FCD0401E10BD40EA010370B59B072ED19E
:101760004FF00136042A2AD308C810C99D1B9D4397
:10177000121F15EAC61517D0D8B2E1B2401A50EAC6
:10178000056110D198B2A1B2401A50EA05410AD1C0
:1017900023F07F4024F07F41401A50EA052102D116
:1017A000180EA0EB146070BDA342DBD018BA21BAAA
:1017B000884201D9012070BD4FF0FF3070BD0AB9D9
:1017C000002070BD10F8013B11F8014B63B1A3423A
:1017D0000AD1521E08D010F8013B11F8014B1BB181
:1017E000A34201D1521EEDD1181B70BD032A40F255
:1017F000308010F0030C00F0158011F8013BBCF1B3
:10180000020F624498BF11F801CB00F8013B38BFCA
:1018100011F8013BA2F1040298BF00F801CB38BFD8
:1018200000F8013B11F0030300F06780083AC0F0B4
:10183000088051F8043B083A51F804CBA0E808109E
:10184000F5E7121D5CBF51F8043B40F8043BAFF3D1
:101850000080D20724BF11F8013B11F801CB48BF2B
:1018600011F8012B24BF00F8013B00F801CB48BF61
:1018700000F8012B7047431A28BF9A427FF6B6AF93
:1018800010441144032A40F2268010F0030F1EBFBB
:1018900011F8013D521E00F8013D10F0030F7FF4D6
:1018A000F6AF11F0030300F06D80083AC0F00B8032
:1018B00051F8043D083A51F804CD40F8043D40F891
:1018C00004CDFFF7F3BF121D5CBF51F8043D40F893
:1018D000043DAFF30080D20724BF11F8013D11F899
:1018E00001CD48BF11F8012C24BF00F8013D00F8DC
:1018F00001CD48BF00F8012C704710B5203AC0F068
:101900000B80B1E81850A0E81850B1E81850A0E8D2
:101910001850203ABFF4F5AF5FEA027C24BFB1E86B
:101920001850A0E8185044BF18C918C0BDE81040AE
:101930005FEA827C24BF51F8043B40F8043B08BFB7
:101940007047D20728BF31F8023B48BF11F8012B7E
:1019500028BF20F8023B48BF00F8012B7047431A0C
:1019600028BF9A427FF6C9AF1044114410F0030F0C
:101970001EBF11F8013D521E00F8013D10F0030F8B
:101980007FF4F6AF103AC0F00A8010B531E9185074
:1019900020E91850103ABFF4F9AFBDE810405307E2
:1019A00024BF31E9081020E9081044BF51F8043D74
:1019B00040F8043D12F0030F08BF7047D20728BF5C
:1019C00031F8023D48BF11F8012C28BF20F8023D34
:1019D00048BF00F8012C704701B501F0FF03114624
:1019E00043EA032242EA024200F013F801BD02F08A
:1019F000FF0343EA032242EA024200F00AB802F07F
:101A0000FF0343EA032242EA024200F024B84FF007
:101A100000020429C0F0128010F0030C00F01B80BB
:101A2000CCF1040CBCF1020F18BF00F8012BA8BFC9
:101A300020F8022BA1EB0C0100F00DB85FEAC17C8D
:101A400024BF00F8012B00F8012B48BF00F8012B40
:101A500070474FF0000200B5134694469646203971
:101A600022BFA0E80C50A0E80C50B1F12001BFF457
:101A7000F7AF090728BFA0E80C5048BF0CC05DF8BD
:101A800004EB890028BF40F8042B08BF704748BF0B
:101A900020F8022B11F0804F18BF00F8012B70477F
:101AA00010B5044610F0030F08BF11F0030F40F00B
:101AB00015804FF0013E121FC0F20E8051F8043B1A
:101AC000A3EB0E0C2CEA030C1CEACE1C08BF40F85A
:101AD000043BF0D0A1F1040102F10402521E08DB24
:101AE00011F8013B00F8013B002BF7D11146FFF73D
:101AF0008EFF204610BD000030B44FF0013C50F87E
:101B0000042B51F8043BCCFA52F4D51A20D1FCB97D
:101B100050F8042B51F8043BCCFA52F4D51A17D1E3
:101B2000B4B950F8042B51F8043BCCFA52F4D51A4E
:101B30000ED16CB950F8042B51F8043BCCFA52F496
:101B4000D51A05D1002CDAD030BC4FF00000704718
:101B500029BAB1FA81F111F01801D1F120008440C5
:101B6000F2D1CA40CB4012F0FF0213F0FF0330BCA9
:101B7000D01A704710B503681C1404EB21449BB2C3
:101B800089B2194494FBF2F302FB134394FBF2F481
:101B900001EB034393FBF2F102FB113193FBF2F3F0
:101BA00001E05B1E11440029FBDB016003EB0440F4
:101BB00010BD2DE9F04704464FF0FF3A86B00068AB
:101BC000029060680390A0680490E068019020692A
:101BD0000090656905F18040B0F1004F7DD83C224E
:101BE000002102A8FFF7C6FF3C22014603A8FFF729
:101BF000C1FF1822014604A8FFF7BCFF411E40F2B6
:101C0000B55201A8FFF7B6FF0C2206466846002130
:101C1000FFF7B0FF00EB860028443E4D00267D44D0
:101C20000FE09A1A491CCDE90012022902D00C29B2
:101C300007D104E0810704D0521C019201E0401C4E
:101C400000960099019B6A5C9A42EADD012906D15F
:101C50001C2B04D1810702D00221CDE90016A0F18E
:101C600046018B2940D20199009B00220F4602E0D9
:101C7000AE5C521C31449A42FADB012B02DD820732
:101C800000D0491E40F2B55540F26D16C21700EB68
:101C9000927292106A4300F0030505FB0622850745
:101CA0000A4400D1521E049D02EB4206DDF80C806E
:101CB000A94605EBC605184EC5EB0515DDF808C0AD
:101CC00008EB850535442E14ADB2C6EB0616C5EB00
:101CD0000515B6000CEB850500E005E006EB1546A2
:101CE00066F31F45360C03D0504606B0BDE8F087BA
:101CF000C4E904307F1C0720521CC4E9029792FB00
:101D0000F0F3E4E806C800FB132084E80304284647
:101D1000EBE70000EACD0700A039CEFD704710B513
:101D200001F0F6F8083010BD10B501F0F1F82030E0
:101D300010BD7BF049BB704770477047704738B59E
:101D400004460A4600206946AFF30080002808BF19
:101D500038BD02460099204601F0E5F8012038BD63
:101D6000012001F03EBEF8B5AFF30080054600202B
:101D70000C460C2000BF0646A819A0420DD93246D9
:101D800069460020AFF30080070008BF01F029FE7C
:101D90000098A04218BF0546C419FFF7C0FF0560B0
:101DA0000746F01D20F007004619284600F00AF803
:101DB000B44208BFF8BDA21B31463868BDE8F84000
:101DC00001F0B1B8002140F8041B40F8041B7BF07F
:101DD00000BB0C20704730B5B0F10A0271F100036E
:101DE0004FEA900E4EEA817EB0EB0E0061EB91015E
:101DF0004FEA101E4EEA017E10EB0E0041EB11116E
:101E00004FEA102E4EEA016E10EB0E0041EB11214D
:101E10004FEA104E4EEA014E10EB0E0041EB11411D
:101E2000401841F100014FEAD00040EA41704FEA0A
:101E3000D1014FEA810444EA907410EB800544EB31
:101E400001046D1944EB0404521BA3414FF000033D
:101E500048BF0A3200D530BD401C41F1000130BD01
:101E600010B5FFF766FF006810BD10B50446FFF718
:101E700060FF046010BD09684A0501D540B2704793
:101E8000C905FCD500B2704709684A0501D5C0B242
:101E90007047C905FCD580B270472DE9F0470D4663
:101EA00099469246044600F124080168880604D544
:101EB000E06921F01001216000E00120A84201DD6D
:101EC000471B00E00027A1697A1902EB0900081AF4
:101ED000A0612078C00602D42046FFF717F800263C
:101EE00008E0D4E901211AF806009047206A401C56
:101EF000761C20624E45F4DB2078C0060AD52046C9
:101F0000FFF704F806E0D4E9012130209047206A69
:101F1000401C2062381EA7F10107F4DC07E0D4E979
:101F2000012118F805009047206A401C2062281EF5
:101F3000A5F10105F3DC2046FEF7FEFF2078000640
:101F400002D50220BDE8F0870120FBE71168026896
:101F5000006A530501D508700AE0D30501D5088051
:101F600006E0130603D5C217C1E9000200E00860CD
:101F7000012070472DE9FF4F0C461E464FF0FF37FA
:101F80008BB0D2E90001DDF860800A908A46C1F387
:101F90000A5505B93D46002108464FF00000BAF148
:101FA000000F00F4400005DA00EB80004FF4400120
:101FB00001EA50004FEA9059B9F1010F00DDB9462E
:101FC0000A9850EA4A000ED044F61050A5F2FF35A8
:101FD00045432F14B8F1000F1ED07542291E1EDD97
:101FE000C9F100021CE0B8F1010F4FF0000001D070
:101FF000302103E0F24305E02154401CB042FBDBFA
:1020000030460022002121540B99C1F80880C1E913
:1020100000200FB0BDE8F08FBD1B6D1CDEE74A4607
:1020200000DA694206A801F037FB06AB93E8070027
:1020300003AB83E8070050460A997AF07DFD8DE8EE
:102040000700A0F500501F3800900398002D0ADD0E
:1020500042F21F014A460844002303A90390684640
:102060007BF028F809E0A0F500504A461F3800230D
:1020700003A9039068467BF047F88DE80700000449
:10208000000C03D04FF0FF30410800E01046B8F1DB
:10209000000F03D00022009215461EE0751E05D4E5
:1020A000FFF799FE303262556D1EF9D5B346012215
:1020B000084302D000227F1C04E02078302801D1A0
:1020C00000227F1E002A099784D01DE0112D07DA17
:1020D000FFF781FE303262556D1C50EA0102F5D1E6
:1020E000084302D00098C8B10EE00021681E05E048
:1020F000235C625C63542254401E491C8142F7DB1E
:10210000AB46A81B401E0990002004F80B000B985A
:10211000099AC0F80880C0E9002B7AE711264FF031
:10212000000857E72DE9F04F88460446D21D22F0FB
:10213000070191B0D1E90001CDE90A017BF0B6FABF
:1021400002460B98C00F01D02D2007E020688107C0
:1021500001D52B2002E0202101EAC000032A0990CA
:1021600001D0072A05DB03464146204601F084F8EA
:102170000BE12078800601D5E06900E00620B8F187
:10218000650F814606D0B8F1660F18D0B8F1670F19
:1021900070D131E00020B9F1110F009001DB112363
:1021A00001E009F101030AAA01A90CA8FFF7E2FE68
:1021B000DDE90C70002609F10105834647E00120A6
:1021C0004B4600904FF000470AAA01A90CA8FFF760
:1021D000D1FEDDE90DB00C995D46002610B909F17C
:1021E00001000D18B9EB050003D4C0F1FF3609F169
:1021F0000105A5EB09002BE0B9F1010F01DA4FF061
:1022000001090020B9F1110F0090484601DD1123AA
:1022100000E003460AAA01A90CA8FFF7ABFEDDE91E
:102220000C704D4600268346207800070AD4AB4543
:1022300000DA5D4601A8012D04DD411911F8011CE9
:10224000302907D04F4502DA17F1040F04DA0120D4
:1022500082460FE06D1EEEE7002F02DCED1B3E44D0
:1022600003E0781CA84200DD7D1CB81B00F1010AC8
:102270004FF000472078000703D4AA4501DB4FF058
:10228000FF3A0021B7F1004F0DF143088DF84310DC
:1022900024D002202B23002F01DA7F422D230A2194
:1022A000021EA0F1010000DC5FB197FBF1FC97FB7F
:1022B000F1F201FB1C7C17460CF1300C08F801CD43
:1022C000EEE7A8F1010003702188090501D5452139
:1022D00000E06521A0F1010800F8011C09980FA990
:1022E000A1EB0807FF1D00B10120411901EBEA70C5
:1022F000A1693844081A401EA0612078C00602D4A3
:102300002046FEF703FE099828B1D4E90121904741
:10231000206A401C20622078C00622D52046FEF7A5
:10232000F5FD1EE0002E04DBB34502DD01A8805D53
:1023300000E03020D4E901219047206A401C20624F
:10234000761CAAF101005FEA000A0AD1FFF7ECFC53
:10235000C0680168405CD4E901219047206A401CB4
:102360002062281EA5F10105DCDC07E0D4E901218B
:1023700018F8010B9047206A401C2062381EA7F114
:102380000107F3DC2046FEF7D7FD032011B041E63C
:1023900001694A1C02610878704700B58FB0CDE929
:1023A00001310021059105497944CDE90310114619
:1023B0006846FEF7BFFE0FB000BD0000E5FFFFFF5F
:1023C0000A6802F8010B0A607047D1E900239A42BB
:1023D00002D2531C0B601070704710B5436913B1E3
:1023E000AFF3008001E0FEF7B8FD012010BD1278C8
:1023F00000F124010A7000224A700122EDE7116801
:102400004FF0FF32E9E70000074B70B50D467B4403
:10241000FFF7C3FF0446284601F0B0F910B14FF0B2
:10242000FF3070BD204670BD4F1C00002DE9FF5FDE
:1024300015468A460446DFF8AC80F8440027D8E900
:1024400000103E46CDE9001010E03AF816106A463A
:1024500002A801F07DFA411C07D02178890603D536
:10246000E269391891420DD80744761C207880061D
:1024700002D5E069B84205DDAE42E6DB3AF8160067
:102480000028E2D1A069C01BA0612046FEF73EFDF6
:10249000D8E90010CDE90010002017E03AF8181034
:1024A0006A4602A801F054FAB0F1FF3F81460BD012
:1024B00000250DF1080B05E0D4E901211BF805000A
:1024C00090476D1C4D45F7D308F10100B04280469E
:1024D000E4DB206A384420622046FEF72DFDBDE88B
:1024E000FF9F0000C6C5070030B4002100F124049E
:1024F00008E002F00705D208303542EA4372DB08F3
:102500006554491C52EA0305F3D10468002310A264
:10251000250708D504F020040C4304D0C469012326
:102520000CA2641EC46130BCFFF7B7BC10B50446F2
:1025300021461068FFF7A8FC02462046BDE810407F
:102540000023D1E7D21D22F00701D1E90023CBE718
:1025500000000000300000003A2800D2303820F09F
:102560002002412A01D3A2F13700884201D34FF063
:10257000FF3070472DE9FF4F06468BB00878FF28E3
:1025800006D0491C2D2805D000244FF0000908E092
:1025900000200CE00124F8E709EB8903491C00EB5B
:1025A00043090878FF28F7D114B1C9F1000081462A
:1025B000107800252C46AA4629462D2801D02B2824
:1025C00004D1521C2D2813D0002082468B4610784F
:1025D000FF280FD04FF0000C0A21521CA5FB0178F8
:1025E00004FB018105FB0C11C5194BEB0104EEE75F
:1025F0000120EAE7002108464FF00000BAF1000F81
:1026000002D000EB80004008C0F38157012F01DDAC
:102610004FF0FF370E9955EA040009EB01080BD083
:102620004FF0020918F5FA7F16DA4FEACA70002F48
:10263000706008DD012007E04FEACA70C6E900B00B
:102640000FB0BDE8F08F00203060FFF772FBC0F8DC
:1026500000901821084616E0B8F5FA7F18DD002F23
:1026600002DAF748784401E0F6487844D0E90010EF
:10267000C6E9001040EACA707060FFF75AFBC0F864
:102680000090142108460FB0BDE8F04F7CF012B95D
:10269000002108464FF00000B8F10001099002DA6D
:1026A000C7F1000200E03A4601DAC8F1000106A8CD
:1026B00000F0F2FF06AB93E8070003AB83E80700E6
:1026C00044F23E005BEA04010090584604D144F213
:1026D0001E012C465D460091210C0904014306D1E0
:1026E0000099240444EA15442D041039009104F0A3
:1026F0007F41014306D10099240244EA15642D026A
:102700000839009104F07041014306D10099240179
:1027100044EA15742D01091F009104F04041014362
:1027200006D10099A40044EA9574AD00891E009179
:1027300004F00041084304D100986D196441401E23
:1027400000904FF001033A466846B8F1000FCDE91A
:10275000014503A902DD7AF0ECFC01E07AF0BFFC50
:10276000BAF1000F04460D4601D084F00044002168
:1027700008464FF00000099940F2FF77484010F0FA
:102780000C0F07D124F00040284303D0C4F30A50B3
:10279000B84212D1FFF7CDFAC0F80090C4F30A5046
:1027A000B8420AD1A8487844D0E90010C6E9001020
:1027B00004F000410843706042E7C6E900543FE777
:1027C0002DE9FF4F1F464FF0000A4FF0FF384546F6
:1027D00091B0D7E90146CDF83CA0FFF7A5FAC06853
:1027E0000168405C1090B96912986D1C8847396A7D
:1027F000814688470028F6D1B9F1FF3F0AD0002E64
:1028000024F4D06411DDB9F12B0F08D0B9F12D0FEC
:102810000BD102E0404615B013E744F48064B96977
:1028200012986D1C8847761E8146600504A901D563
:102830002D2000E02B20002E01F1010B0DF13008BE
:102840008DF810003FDDB9F1690F08D0B9F1490FDB
:1028500005D0B9F16E0F02D0B9F14E0F1CD13B4635
:1028600001A8009580E85002DDE912126FF0020025
:102870007CF08BF8C11CCED10EE0B96912986D1CAA
:10288000884781461398761E44F4007405600F98BB
:10289000401C002E0F9016DDB9F1300FEDD0B9F1CC
:1028A000780F02D0B9F1580F0DD10F9801280AD135
:1028B0003B46CDE90054DDE91212001F02967CF080
:1028C00062F8C11CA7D1109989453ED144F080041B
:1028D00006E01399681CAAF1010A44F40074086028
:1028E000B9696D1C1298761E884730288146F0D051
:1028F0002BE01099894505D1200603D4761E44F0BB
:10290000800418E048467BF006F908B3761E0DF106
:1029100023029345A9F1300044F4007406D20BF869
:10292000010B200607D5AAF1010003E0200602D41E
:102930000AF101008246A00502D51399681C0860BF
:10294000B96912986D1C88478146002ED1DC53E08E
:10295000002E51DDB9F1650F02D0B9F1450F4BD111
:10296000A00549D5B9696D1C1298761E24F44074EF
:102970008847002E81460CDD2B2804D0B9F12D0F9D
:1029800007D144F48074B96912986D1C8847761E8B
:102990008146E00501D52D2100E02B2108F8011B1F
:1029A000CDF8008021E0761E0DF13901884544F410
:1029B00000740CD2A9F1300010F0FF0088F800007C
:1029C00002D10099884509D908F1010806E0E0051F
:1029D00001D51E4801E042F20F708246B969129893
:1029E0006D1C8847814613980560002E04DD48461B
:1029F0007BF091F80028D6D1F96912988847FF201A
:102A000053468BF8000088F8000000200A900B90D5
:102A100004AA0CA90AA8FFF7ADFDA00502D46FF027
:102A20000100F8E614F0240F12D0E0071CD138683A
:102A3000DDE90A12031D3B600068C0E9001213E0E3
:102A400040D4100032D41000F6D21000F1D8FFFFAD
:102A50000AA968467BF04CF8E00705D13868009A6F
:102A6000011D3960006802602846D4E602681144FE
:102A70001378016018467047D16005497944516167
:102A800004497944116200211161114600F04ABCE9
:102A9000EDFFFFFFE5040000426842B1016811F854
:102AA000013B23B1521EC0E90012184670470121B4
:102AB000C160881E704742685AB1C368016843B953
:102AC00083688B4205D0491E521CC0E900120020C9
:102AD00070474FF0FF3070472DE9F05F8246154692
:102AE0008B4600270AF10104B9460078302801D04E
:102AF0009DB113E014F8010B0127782803D0582862
:102B000001D045B10AE00DB1102D07D1002714F80E
:102B1000010B102502E0082500E00A250026B0463A
:102B20000EE005FB080005FB06F101271FFA80F8FF
:102B300001EB1046B6F5803F00D3B94614F8010BFF
:102B40002946FFF709FD0028EBDABBF1000F05D09D
:102B50000FB1641E00E05446CBF80040B9F1000FFD
:102B600006D0FFF7E6F802210160C81EBDE8F09F1D
:102B700048EA0640FAE700000FB40B0010B54FF02A
:102B800000048AB00FA900910E99CC60234C7C44BC
:102B9000234A7A44CDE9064200D004236FF0004274
:102BA000CDE901321F4A7A446B4608920246002062
:102BB0007BF0E7FE0AB010BC5DF814FBF0B50746E9
:102BC0004FF0FF301E4615460C463B4685B06A4620
:102BD0000091CDE9010131460020049004A8FFF7DF
:102BE000CBFF04990346601825B109B1024600E005
:102BF00022462A6000290ED0002B02DD0099814276
:102C000009D03B466A463146001B0094CDE90104D9
:102C100004A8FFF7B1FF05B0F0BD000007FFFFFFFC
:102C200021FFFFFFC103000000230360FFF7C6BFC1
:102C3000C16821F4001141F08001C1600021816070
:102C4000016070472DE9F74F15460C464FF0FF3BEA
:102C50003848D768D2F814A0074209D05046A9696D
:102C600011F0E0FB002819DB3248C0430740EF6059
:102C70004FF000496FF000484C4501D3464600E054
:102C8000264600993B465046324611F0CEFBA969D4
:102C900020F00042B21A1144A96128B12846FFF77A
:102CA000C7FF5846BDE8FE8FA41BE5D10020F9E719
:102CB00070B504460569C06A6168884200D8084654
:102CC000E16821F42011E160C90312D5A84208D0BF
:102CD0002246411B2846FFF7B5FF10B14FF0FF30E9
:102CE00070BD0020E562C4E90150E06820F4803046
:102CF000E060002070BD10B50446C06820F02000E0
:102D0000E060A16AA06988420DD02046FFF7D0FF9D
:102D1000E06820F4405040F01000E060A06AA0613C
:102D20002069E062606044F24001E0688843E0604E
:102D300010BD00001000020010B565485421FEF7D8
:102D400088FE64485421FEF784FE63485421FEF750
:102D500080FE62485E49624A624B01605D481060D5
:102D60005D4A1A60431C0B65511C0165012010650A
:102D700057484C307AF02DFB56484C307AF029FBFE
:102D800055484C307AF025FB57487AF022FB5848DA
:102D90004F4A56A1784400F08FFD20B9544878443A
:102DA0000A3800F017FE54484A4A52A1784400F00D
:102DB00083FD20B9504878440A3800F00BFE4F4894
:102DC000454A4CA1784400F077FD20B94B4878443F
:102DD0000A3800F0FFFD40233D48DC000021224678
:102DE00000F0DBFC20B142487844543800F0F2FD9A
:102DF000384822464023002100F0CFFC20B13E4855
:102E00007844543800F0E6FD334822461023002170
:102E100000F0C3FC002806D038487844BDE81040D4
:102E2000563800F0D7BD10BD2B482DE9F041006D9C
:102E30002D4E20F0010430467AF0BCFA244D4C357A
:102E400028467AF0B7FA2248FEF7C0FB28467AF007
:102E5000B6FA28467AF0C2FA1E4D4C3528467AF06A
:102E6000A9FA1C48FEF7B2FB28467AF0A8FA2846D1
:102E70007AF0B4FA184D4C3528467AF09BFA164889
:102E8000FEF7A4FB28467AF09AFA28467AF0A6FACA
:102E900014E0206D20F0010504F14C0007467AF0A3
:102EA00089FA2046FEF792FB38467AF088FA3846CF
:102EB0007AF094FA2046FDF75FFE2C46002CE8D10C
:102EC00030467AF07CFA08487AF088FABDE8F0815A
:102ED000A0D60A24F4D60A2448D70A245CD30A24AC
:102EE00060D30A2464D30A2468D30A247200000041
:102EF00026BC07007700000012BC0700FEBB0700DD
:102F000010B500F04FFDBDE8104000F045BD0000D9
:102F10000048704780D80A24801A0844401E491E81
:102F200088431044704770B5144605468C46436884
:102F3000002B18BF634538BF1846F8D30268104409
:102F4000604508D06646604604220821FFF7E4FF8A
:102F5000811B8446641A2946CCF80040BDE87040C5
:102F600000220CF10400FDF7D6BD10B50446FDF7B4
:102F700063FD0068005D00F0010010BD2DE9F04F19
:102F800004460D46D21D22F0070089B0D0E9009713
:102F9000484639467AF08AFB0246F80F01D02D23C5
:102FA00007E02068810701D52B2302E0202101EAF8
:102FB000C0038DF820300BB1012000E00020032A6F
:102FC000824601D0072A04DB2946204600F054F946
:102FD0003FE12078800601D40D2500E0E569C7F3C4
:102FE0000A560D2D49DA00214FEA175B08464FF0CB
:102FF0000000002F00F4400007DA00EB80004FF4DF
:10300000400100EBD07001EA60008115012901DD6B
:103010004FF0FF3100224FEA850CBCF1180F06D3A8
:103020001346ACF118004FF08052C24003E04FF459
:10303000801323FA0CF30CF10C0CBCF1200F04D319
:10304000ACF1200C09FA0CF001E007FA0CF00029B1
:103050004FF0004801DD18B90FE00ED140450CD308
:1030600019EB02095F4121B9404502D19F4329EA8A
:103070000209BBEB175F00D0761C2088000502D543
:103080007B48784402E07A487844193808AA30230B
:1030900002F80A30037C0AF10101002E0AF1020A4B
:1030A00053546A4602DC4FF0300101E04FF0310129
:1030B0004FF001088DF8001002D0A6F2FF3603E0B1
:1030C00059EA470100D06B4E002D02DC2178090738
:1030D00004D54FF002082E218DF80110C4460021BE
:1030E0000BE0C7F303433F01C35C491C6D1E02F8AC
:1030F0000830052908F1010801DA002DF1DC002172
:103100000CE000EB1973491C1B786D1E082902F8AE
:1031100008304FEA091908F1010801DA002DF0DC46
:1031200021688B0602D516E0A8F10108E04505DD0F
:1031300002EB080313F8013C302BF5D0B8F1000F77
:1031400009DD02EB080313F8013C2E2B03D109071C
:1031500001D4A8F10108002D05DD3E2102F8081078
:103160006D1E08F10108407C002E02F8080008F1ED
:10317000010804DA2D20764202F8080002E02B2034
:1031800002F808000A214FF47A70864208F101081B
:103190000BDB96FBF0F3303302F8083096FBF0F3CC
:1031A00008F1010800FB136601E0642E0CDB6420CB
:1031B00096FBF0F3303302F8083096FBF0F308F199
:1031C000010800FB136601E00A2E06DB96FBF1F016
:1031D000303002F8080008F1010896FBF1F001FB1D
:1031E0001060303002F80800A16908F1010808EB0E
:1031F000050202EB0A00081AA0612078C00602D47A
:103200002046FDF783FE216A08AE01EB0A0020622A
:1032100004E0D4E9012116F8010B9047BAF1010A44
:10322000F7D22078C00602D52046FDF76FFE6E4625
:1032300009E016F8010B3E280FD0D4E90121904790
:10324000206A401C2062B8F10108F2D22046FDF746
:1032500073FE09B00320BDE8F08F206A2844206285
:1032600003E0D4E90121302090476D1EEBD3F8E74D
:10327000A5B9070002FCFFFF2DE9F0411F460446F7
:1032800003260168072A01F4006004DB08B116A5D3
:1032900005E016A503E008B115A500E015A521F08D
:1032A00010002060A069C01EA0610FB1401EA06187
:1032B0002046FDF72BFE4FB1D4E901213846904757
:1032C000206A401C2062C01C206206E0206AFAE7E7
:1032D000D4E9012115F8010B9047761EF8D220465B
:1032E000FDF72AFEBDE8F0814E414E006E616E0092
:1032F000494E4600696E660010B5436913B1AFF3DD
:10330000008001E0FFF792F8012010BD128800F163
:10331000240182840022C2840122EDE711684FF06B
:10332000FF32E9E72DE9F34F4FF0000A0C4656460D
:103330008DB001200C9001F10C000B9062690B988C
:1033400001219047051E2DD0252D2CD0216A8847BC
:10335000C0B162690B9801219047216A8847002813
:10336000F7D16269411E0B98904700E0761CA16975
:103370000D988847216A88470028F7D1E1690D98A0
:103380008847DBE7A1690D988847A842074601D125
:10339000761CD3E7E1690D9888477F1C02D1BAF10A
:1033A000000F6FD06BE162690B9800273D463946EC
:1033B00090472A2804D162690B9801219047012582
:1033C000DFF8D08262690B9801219047A0F13001AB
:1033D0000A290AD24745E5DC07EB870100EB4107E4
:1033E000303FDFD445F01005ECE7E90601D46FF07B
:1033F00000476C280AD04C2814D0682815D06A28B9
:103400000DD074281CD07A281AD01DE062690B9860
:10341000012190476C2802D045F0040514E045F0E6
:1034200002050DE045F020050AE062690B980121D4
:103430009047682802D045F0080505E045F400658E
:1034400062690B9801219047C4E9015765283DD076
:1034500019DC58287AD00CDC452837D004DC252824
:1034600026D041289ED131E046282FD0472899D137
:103470002CE05B2877D0612828D063287CD0642892
:1034800023D15AE0F6E06F2848D008DC66281DD02A
:1034900067281BD0692821D06E2816D127E0702814
:1034A00045D0732868D0752847D078280DD14DE0D5
:1034B000A1690D988847252805463FF469AFE16961
:1034C0000D9888476D1C3FF46AAFD8E00D992346EC
:1034D0006A466FF001007BF054FAC5E045F0400009
:1034E00023464FF000026060A80736D43EE0E807AC
:1034F0007FF447AF2068011D21600068290501D5D0
:1035000006701BE7290701D5068017E7A90703D531
:10351000F117C0E9006111E706600FE745F04000D0
:1035200023464FF008026060A80716D41EE040F65C
:103530000E0125EA0100606016E045F040002346D8
:103540004FF00A026060A80707D40FE045F0400082
:103550006060A80708D5234610220D996FF001007E
:10356000AFF3008080E007E0102223460D996FF052
:103570000100FDF7C1FE77E04FF0000963284F46D8
:10358000C8464B46CB4602D05B2806D038E0E8065A
:1035900001D40120A060012732E06269D4F80CB0A8
:1035A0000B98012190475E2807D14FF00109494649
:1035B0006269D4F80CB00B989047216939B90021A1
:1035C0000A4603AB43F82120491C0829FADBD8B38B
:1035D000216949B308F1010862690B9801219047FC
:1035E0005D28F4D1B9F1000F09D0002003A951F8EA
:1035F0002020D24341F82020401C0828F7DB03ABF1
:103600002069002820794FEA40701ED05B46224690
:10361000CDF80080CDE901970D9900286FF00100E9
:1036200020DAAFF300801FE0C11703AA00EBD161DD
:103630004B1121F01F0102EB8302411A1368012094
:10364000884003431360C7E719E00D99224600281C
:103650006FF00100009702DAAFF3008004E0FDF79D
:10366000F1FE01E0AFF3008000280ADA401C06D129
:103670000C9820B14FF0FF300FB0BDE8F08F5046EE
:10368000FAE7E90701D10AF1010A064400200C908B
:1036900054E60000CCCCCC0C2DE9F0478146164610
:1036A0008AB0354878440DC88DE80D00324878441A
:1036B000801C03AC0DC884E80D0041F69B30084423
:1036C000372190FBF1F290FBF1F5A5F1800501FBAC
:1036D00012041B3C02D56442012000E00020DFF808
:1036E00098A080460027FA44AAF1BE0A0EE0E0073F
:1036F0000AD03246684607EB470101230AEB8101F5
:1037000079F002FD8DE8070064107F1C002CEED1DB
:10371000194F7F44AE3F19E0E80715D007EB0410BE
:103720000DF1180A90E80E008AE80E00C068F04219
:1037300001D1981908903246012306A903A879F00F
:10374000E3FC03AB83E807006D10641C002DE3D19C
:103750004FF0010332466946B8F1000F03A802D0CA
:1037600079F0A8FC01E079F0CFFCC9E90001C9F8C3
:1037700008200AB0BDE8F08714B4070070B504460D
:1037800000F14C05284679F015FE207B00F08004FE
:10379000284679F014FE204670BD2DE9F047044616
:1037A0001E4690460D46C7684C30814679F002FEB1
:1037B000B80714D0780212D44046B8F5807F09D0FB
:1037C000B0F5007F06D0B8F5806F08D1012604F16E
:1037D000240506E0701E6FF07F41884201D301246A
:1037E00009E02561E6616560E06820F4706040EA08
:1037F0000800E0600024484679F0E1FD2046BDE87D
:10380000F08700002DE9F04716468846070010D0E3
:1038100006F14C00814679F0CDFD3046FDF7D6FE2D
:1038200018F8010B61280DD0722805D0772841D1F6
:1038300005E00020BDE8F0870125002405E0022511
:10384000042402E0082448F2020518F8010B2B2892
:1038500006D0622809D018F8010C74280AD00BE0B1
:1038600045F0030544F00204EFE745F0040544F099
:103870000104EAE744F010043846214679F0B3FD2C
:10388000411C17D00021316171604FF40071F56067
:10389000F1617061200704D530460222002100F05A
:1038A000D9FA306D40F001003065484679F087FD67
:1038B0003046BFE70026F8E72DE9F04115460E46F1
:1038C0000746214C204679F075FD2A463146384698
:1038D000FFF798FF0546204679F071FD2846BDE8C0
:1038E000F0812DE9F0410E468046174D284679F0CB
:1038F00061FD164C206DC10704D0410804D020F0B2
:103900000104F7E7224612E05420FDF7FAF8070019
:1039100017D0206D47F00101084354212065384637
:10392000FEF797F807F14C0079F053FD3A4631461F
:103930004046FFF767FF0446284679F040FD2046E1
:10394000CDE70024F8E7000068D30A24A0D60A24B3
:103950002DE9F04116460C460546FDF76DF8036863
:1039600093F80101012807D0FF2C12D8185D80B10F
:1039700001202C70BDE8F081D3F8070132462146C2
:1039800003F20713C7182846BC46BDE8F0410023E0
:1039900060474FF0FF30EDE7002801D079F005BD1A
:1039A0007047000010B5002102A000F0D8FA0120F5
:1039B00010BD0000534947414252543A2041626EC3
:1039C0006F726D616C207465726D696E6174696F80
:1039D0006E00000010B500F0DBFABDE81040FFF704
:1039E000DBBF10B500F0EEFABDE81040FFF7D4BF22
:1039F00010B5FEF794F90068BDE8104000F00ABB6E
:103A00002DE9FF4F1F464FF03C0987B04FF00042B1
:103A1000DDE9141001F10108DDF858A002EA405078
:103A20000390002005908346054604460490B9693A
:103A3000461E08988847AAF1010A0290BAF1000FC1
:103A40003BDD02982E2815D01021FEF785FD0028B9
:103A50002EDB4FF0010B0599014317D0B9F1000F90
:103A60000BDB4A46C117FDF784F905430C43A9F166
:103A7000040905E0012004900BE008B145F00105C0
:103A800001200590049820B9361D02E0049800B189
:103A9000361FB969089808F101088847BBF1000F83
:103AA000AAF1010A0290C9D00999C1F80080C5E7BE
:103AB0000298702808D0502806D0F96908988847DD
:103AC000BBF1000F14D04FE0002002900120BBF1A9
:103AD000000F049009D0B969089808F101088847D7
:103AE000AAF10109B9F1000F07DCF96908988847C4
:103AF0006FF001000BB0BDE8F08F2B2804D02D280B
:103B00000CD14FF0FF300490B969089808F1010812
:103B10008847A9F10109B9F1000FE6DD411CE4D0A5
:103B20000A21FEF719FD0028DFDB029908F10108E0
:103B300001EB810100EB41000290B96908988847C8
:103B40000A21FEF709FD099AA9F10109B9F1000F4F
:103B5000C2F8008001DD0028E7DAF9690898884793
:103B60000499029800FB016655EA040004D004F0B1
:103B70004041090002D006E0039898E0A40044EA1E
:103B80009574AD00B61E04F00041080002D16D1915
:103B90006441761E159810F0240F03D04FF00B09E6
:103BA0005C4803E04FF028096FF07D0082465645DF
:103BB00007DAAAEB06018944B9F1410F01DD4FF0A4
:103BC000410901200021A9F10102FDF7D2F80246C6
:103BD00028400B462140084301D0012100E000218C
:103BE000501E029143F1FF3128402140084301D08B
:103BF000012000E000200299834651EA0B014FD0DA
:103C0000002108464FF00000039900F4400039B14C
:103C100000EB80004FF4400100EBD07001EA60003F
:103C20008015012802DD4FF0FF3000E013D0401C6A
:103C300036D0029860B3BBF1000F0CD14A46012088
:103C40000021FDF796F828402140084301D00120CB
:103C500000E00020E0B101204A460021FDF789F88C
:103C6000034640190A4661412D1A8C4111D3B9F11E
:103C7000400F09DD159810F0240F02D0AAF1340688
:103C800003E0AAF1170600E0761C00254FF000447F
:103C900006E05B1E42F1FF3220EA030521EA02043E
:103CA000CAF10100B04206DA1B49039808430190AB
:103CB000002000900EE0039AC4F3D321E80A0A43DF
:103CC000164940EA44500A433146CDE900026846AD
:103CD00079F017FF159810F0240F0BD01598C00736
:103CE00015D13868DDE90012031D3B600068C0E9AA
:103CF00000120CE002A8694679F0FAFE1598C00798
:103D000005D13868029A011D39600068026040469A
:103D1000F0E6000002FCFFFF0000F07F0000F03F33
:103D20002DE9FF4F92461D4685B04FF00041DDE979
:103D3000124BDDE914727F1E01EA4B50414940F0FD
:103D4000FF4940EA0108002122F02000492804919F
:103D500002D04E2828D04CE03BA0012607C88DE8B1
:103D60000700A9690698641C88477F1E014606D48F
:103D70001DF8060018B121F0200181420BD0E9693D
:103D800006988847032E34D0082E32D06FF00100F9
:103D900009B0BDE8F08F761C032E01D0082EE0D1CB
:103DA000601CCAF80000DCE7A9690698641C884713
:103DB0007F1E2AD420F02000412826D1A969069828
:103DC000641C88477F1E20D420F020004E281CD180
:103DD000A9690698641C88477F1E48F4002849F4A6
:103DE0008009CAF8004001D4282806D0E96906985D
:103DF00088475FEACB7012D022E0A9690698641C5C
:103E000088477F1E01D4002803DAE96906988847AD
:103E1000BCE72928F1D1641CCAF80040E9E71BF08F
:103E2000240F07D028680499031D2B600068C0E99F
:103E3000001805E02868021D2A600068C0F800909C
:103E40002046A5E70000F07F494E46494E495459A7
:103E5000000000002DE9F041044616460D46476972
:103E6000007B80072ED0384610F0DAFA50BB3EB304
:103E7000012E02D0022E25D104E0204600F0CFF81A
:103E800005441DE0384610F0C9FAE168002841F009
:103E90001001E16005DA2046FEF7CAFE0120BDE808
:103EA000F081C9030BD56268E16A914200D81146DE
:103EB000A26911442269891A814200DD084605443D
:103EC000002D01DA0220EAE7E16A6068E2688142D7
:103ED00006D29103E06203D522F4003141F01002D2
:103EE000A6690027AE4213DCE16A814201D90B4684
:103EF00000E0034603EB060C2369ACEB030CAC4576
:103F000006DD814201D98C4600E084469C4505D1FE
:103F1000A760276042F02000A5620DE0AD1BE669B6
:103F2000AE1B8142A66000D90846C01A281A20603C
:103F30005819606022F0200003490840E06000202A
:103F400084F84870ABE70000BFCFD7FF10B5044638
:103F5000AFF300802046BDE81040FCF74BBD70B5C4
:103F600005460C460A2000E06D1C79F041FA35B197
:103F700028780028F8D102E0641C79F039FA14B1ED
:103F800020780028F8D1BDE870400A2079F030BAD6
:103F900010B5014602A0FFF7E2FF012010BD0000AE
:103FA00053494752545245443A20526564697265F8
:103FB00063743A2063616E2774206F70656E3A20D7
:103FC0000000000010B5012805D0002103A0FFF774
:103FD000C6FF012010BD09A1F8E700005349475270
:103FE000544D454D3A204F7574206F6620686561C9
:103FF00070206D656D6F7279000000003A20486591
:104000006170206D656D6F727920636F727275706B
:104010007465640010B5083079F0E0F910BD10B592
:104020000146C268900703D0900607D5886A0AE067
:10403000FDF77FFE01210160881E10BD8B69486875
:1040400018440B69C01A91F848301BB191F8491017
:10405000401A10BD1103FCD50028FADD401E10BD2A
:1040600070B5C5B2074E04460A2D05D130780D282B
:1040700002D00D201AF0D2FF28461AF0CFFF2046BA
:10408000347070BDD0120B242DE9F04F93B08146EF
:1040900002F10F0004094DF23860C2F20A40002A12
:1040A00008BF012400682501AEB2D0F8A8008B46F5
:1040B00031469846174673F05FFCB0B131468246F0
:1040C000CDF80480FDF7A3FCBBF1000F4FF0000614
:1040D0000DD04FF0000867B1E81B80B2594650443C
:1040E0003A46FDF783FBB84603E00025B0E04FF009
:1040F00000080DF1380B02AA484610211023CDE923
:104100000466CDE90266CDF800B00FF0D8F80028BB
:1041100000F09A809DF94B000BF10406B0F1FF3FCF
:104120004FF000000AA94FF0000209DD335C42EABB
:104130004302DB090A54013010281A46F6D10FE079
:10414000335C42EA4302DB090A54013010281A4664
:10415000F6D14DF280510AA8C2F20A4162F01EF96E
:104160009DF93700B0F1FF3F0EDD00200AA906AA35
:10417000002300BF0F5C43EA4703FF0913540130DB
:1041800010283B46F6D113E000200AA906AA002316
:104190000F5C43EA4703FF091354013010283B46E4
:1041A000F6D14DF2805106A8C2F20A4162F0F6F84B
:1041B000B8F1000F08F00F0102D009B90AA912E006
:1041C000481CAAEB010101F10F02002306A900BF60
:1041D000B3FA83F77F09FF01D754C7B20130102F1C
:1041E000A3F10103F4D1504662F0D8F800200D90FD
:1041F000CDE90B000A90F4B101200DF12808012748
:10420000201A0AEB00154146284662F0C7F84846D6
:1042100010212A461023CDF800B00FF050F898B1C5
:1042200096E80F000DF1280C01378CE80700F8B272
:1042300084420D93E4D2019A1C98ABEB0201143135
:10424000FDF7D4FA012500E00025504673F03CFA52
:10425000284613B0BDE8F08F4DF23860C2F20A4034
:1042600000684AF25151C0F63901C0F88410704715
:10427000B0B50C46054600F0C3FBC06888B10069C4
:1042800078B11F2D84BF4FF4FB50B0BD28462146A6
:1042900015F0FEFE01460020002908BF41F6A67079
:1042A000B0BD41F6A770B0BD012A84BF41F6A87029
:1042B0007047F0B581B006464DF23860C2F20A4050
:1042C0000068144647680D4614F07CFA97F84402DB
:1042D000000744BF002015F0C6FE05F0FD00314682
:1042E000224615F079FF97F84402000744BF0120E9
:1042F00015F0B9FE14F080F8002001B0F0BD80B5D3
:104300004DF23861C2F20A410A68516891F84432AC
:1043100043F0040381F8443252688388A2F8C43021
:104320000368C2F8C03091F84422D2064FF001026F
:1043300081F8002202D4B1F828223AB98288A1F883
:1043400005220268C1F8012214F035F9002080BD71
:104350002DE9F04FA7B015460F46824600F050FBFE
:104360000446C068002835D04DF23869C2F20A49C7
:10437000D9F8001000694E680021ADF80C100291C8
:1043800040B307F001018DF80F1065B186F8B71141
:104390002968C6F8B811A988A6F8BC112968AA88A6
:1043A0000291ADF80C20AAF10101072922D8DFE81B
:1043B00001F03A444E5704140414B0F818B0B0F8A1
:1043C0001A800221BAF1050F08BF032186F8B61141
:1043D0001C304DE041F6A7775FE0B0F81EB0B0F8B2
:1043E000208002212230BAF1060F08BF032186F88F
:1043F000B6113DE096F8BE01504502D1022800F208
:10440000A08006F5DF7814F0B5F9BAF1000F4FF08F
:10441000000700F0A580CDF804804FF4006B4FF446
:10442000006800205DE0B0F80EB0B0F81080012008
:1044300086F8B6017DB300271BE0B0F812B0B0F8E3
:104440001480C78A042086F8B60195B923E0B0F835
:1044500002B0B0F80480002186F8B611063007E0FB
:10446000B0F808B0B0F80A80002186F8B6110C3018
:1044700007884FF6FF70834505D0ABF1200143F666
:10448000E072914207D880450BD0A8F1200043F696
:10449000E071884205D941F6A877384627B0BDE8D3
:1044A000F08F96F8BE01504512D1022810D9002F86
:1044B00047D04FF47A7007FB00F347F68D2106F5DD
:1044C000E070C0F639010022002700F0B5FDE4E7F6
:1044D00006F5DF70019014F04DF94FF47A7007FB88
:1044E00000F0009006F500720DF10F012846A6F8C5
:1044F000B0B1A6F8B28186F8BEA115F044FBD6F89B
:10450000B001E168049096F8B60109698DF81400CD
:1045100096F8000202AA8DF8150008789DF80F1091
:104520008DF8160096F8B4018DF8170004A815F060
:10453000E9FD14F0A6F830B1019A00210746117088
:1045400012E00027A9E777B147F68D21009B06F519
:10455000E070C0F639010022002700F06DFD03E095
:1045600088F8007000E00027D9F80000406890F853
:10457000BE11D0F8C0228DF8101004A91820904761
:104580008BE710B50C46022113F0C6F808B180F88D
:10459000B74010BD70B58AB00C461F21054602A871
:1045A00001911F210090FDF754FAA4B16E4600BF9F
:1045B000280609D030462146013D14F063F9002851
:1045C00004F10804F4D106E09DF8060018B102A930
:1045D000FFF74EFE01E041F6A6700AB070BDC1685B
:1045E000A1B1CA68A2B10A69A2B1498841293CBFF8
:1045F00023207047016900290FBF302044F28461F5
:10460000C2F20B41086018BF00207047202070479D
:10461000212070472220704780B540F6D030C2F28A
:104620000B40806C28B115F0CFFEBDE8804014F03F
:104630002CBA80BDB0B582B04DF23865C2F20A45E1
:10464000296804464968896B49B1A14207D014B36F
:1046500041F6A870ADF8040001A8A0471BE012F0D5
:1046600079FF286841F6AF734168ADF806308A6D6E
:104670002AB10020886500209047286841688A6F29
:104680002AB1002088670DF106009047286840682D
:10469000846314F020FA02B0B0BD4DF23861C2F26A
:1046A0000A4109681022496801F21311FDF79EB80A
:1046B0004DF23861C2F20A4109681022496801F2DC
:1046C0002311FDF793B84DF23861C2F20A4109682F
:1046D0001022496801F20311FDF788B870B5002671
:1046E0000C460E7002211546167013F015F8F8B13D
:1046F000B0F8B410090706D490F83D10C9070AD0E5
:1047000000F19D0105E0217841F00101217000F1E7
:10471000B7010978297090F83D10C90707D090F8C3
:104720009C002178042818BF02200843207001262D
:10473000304670BD4DF23861C2F20A4109684968DD
:10474000B1F8C4208280D1F8C0100160704710B564
:104750000C46114612F0E0FF002819BF817E0020B0
:1047600041F6AA70FF21217010BDC06830B10078F9
:10477000C82200FB02F000F54A7001E04FF44A70D5
:1047800002220A6070474DF23860C2F20A400068A7
:10479000406890F833010238B0FA80F04009704761
:1047A000B0B50D460221144612F0B6FF38B1B0F88C
:1047B0001510A980D0F811102960C07D2070B0BDFF
:1047C000B0B50D460221144612F0A6FF58B1C189BA
:1047D000A980D0F80A102960007C002818BF0120A9
:1047E00020700120B0BD0020B0BD4DF23861C2F292
:1047F0000A4109684968D1F8C022002A12BF002086
:10480000C1F8C002012070474DF23861C2F20A417E
:10481000096802464B6819691A610846704741F6F3
:10482000A7720923914208BF0523002918BF194622
:104830000EF0ACBD10B54DF23862C2F20A421368F8
:104840000A465B68014603F53F7003F5427412F0B7
:1048500045FF204673F037FB18B92046002173F05E
:104860008DFB002010BD10B584B04DF23864C2F24B
:104870000A442268D2F8843053B1828800680391D8
:10488000019001A90B20ADF808209847226801E0AB
:1048900041F6A670516891F8442202F0FB0281F8BB
:1048A000442204B010BD80B54DF23862C2F20A4213
:1048B0001268B0FA80F053684FEA501E93F820C394
:1048C00001F001010CF0FE00704483F820035068F1
:1048D00090F8202302F0FB0242EA810180F82013C5
:1048E00080BD10B51C4615F0BBFD002C18BF41F66D
:1048F000A474002808BF41F6A674204610BD10B568
:104900004DF23861C2F20A410968D1F8A82000F1DD
:104910001B01104673F030F8044618B120461B21E5
:10492000FDF775F8204610BD0A4601460020AFF39A
:104930000080F0B581B04DF23867C2F20A471546E3
:104940003A68012D064603D1D2E92803834217DCD9
:10495000D2F8A80031441B3173F00EF880B1064440
:10496000044630461B21FDF752F8012D09D1386865
:104970000121D0F8A4203176511CC0F8A41000E029
:104980000024204601B0F0BD2DE9F04F81B08246F1
:1049900045F66470C0F646008B46071D4FF00008D0
:1049A0000126E825E94600243A6850464946CDF8F4
:1049B00000809047BBF1000F0AD00BEBC40257F800
:1049C000043C00994BF834309180D08001E000BF66
:1049D000009901340E440544062C07F10C07E3D17D
:1049E00005EBC60001B0BDE8F08F102070474DF216
:1049F0003860C2F20A400068D0E92801401A7047C6
:104A000044F28460C2F20B400068704770B50D46F6
:104A10004DF23861C2F20A4109680446D1F8A80093
:104A200004F1280172F0A8FF50B11B210646FCF7E3
:104A3000EEFF0D20F08206F127002E60B48270BDDB
:104A4000002070BD70B540F6D0340646C2F20B446B
:104A5000204631465422FCF7C9FE48F2680145F66B
:104A600010720020C0F64601C0F6460231F8103040
:104A7000E5580DB9D558E55001301428F6D196F80F
:104A8000500094F8501000F0010001F0FE010844BD
:104A900084F850004DF2386040F6E821C2F20A4036
:104AA000C2F20B41016070BD0021C0E900118160BC
:104AB0007047017EC9070DD04DF23861C2F20A413C
:104AC0000968D1F8A420002A08BF72F0FDBD013AA0
:104AD000C1F8A42072F0F8BD2DE9F04F81B0164660
:104AE0000F468046FFF78CFF4DF23869C2F20A4943
:104AF000D9F8005095F8BD10002967D182462C687E
:104B0000D5F858B0281DE421FCF781FF2C60D9F8B6
:104B10000000C5E92C76016829B901217C2215F035
:104B2000F1FCD9F80000C0F858B07030FFF7BCFFB6
:104B3000D9F8000001270A21A0F88070C0F8A01061
:104B4000FFF753FF0B2100FB01F000F53070B0F5CB
:104B5000006F98BF4FF40060033020F0030630462A
:104B600000F0A1F9014600251AA032460023009565
:104B700072F05DFCD9F80060C6F8A80006F18C015F
:104B800006F1880206F1900394365046009613F021
:104B900042FF14F0B1F84046FFF727FE4BF26320C6
:104BA000C0F63900FFF730FE13F07AFF30F0A0FFB7
:104BB00023F036FA0EF08EFB12F0DDFFFFF74CFB10
:104BC00013F079FFD9F8000080F8BD7001B0BDE89E
:104BD000F08F00BF6274750070B5A4B04DF23864F8
:104BE000C2F20A44206890F8BD1051B34068D0F872
:104BF000C05215F023FD00F04DFA2168D1F89C0059
:104C000038B100BF466800F048F9002E3046F9D1AF
:104C10002168D1F8A80072F04FFC2068D0F8A800F5
:104C200000F03BF92468E8212046FCF7F0FE022062
:104C300084F8E1002DB101208DF8040001A90120C4
:104C4000A84724B070BD0000052200BF8B5C013A6C
:104C500000F8013B531CF9D170470000052200BF4A
:104C600011F8013B8354013A531CF9D108467047AF
:104C700070B50468002C3FD041680646206891B1A9
:104C80008C4210D090BB40F2984203200021C2F227
:104C90000B4200BF24FA01F313540138431C01F105
:104CA0000801F7D110E08C4228D0F8B940F29842C0
:104CB00003200021C2F20B4224FA01F313540138FD
:104CC000431C01F10801F7D14DF23040C2F20A4015
:104CD000026840F6D030C2F20B40036840F29841BF
:104CE000C2F20B414FF20400984720683060B06870
:104CF0000138B06000202060204670BDF8B140F25D
:104D0000984303210022C2F20B4300BF20FA02F5B0
:104D10005D5401394D1C02F10802F7D14DF23040CB
:104D2000C2F20A40026840F6D030C2F20B4003687B
:104D300040F29841C2F20B414FF204009847002024
:104D4000C6E90000D3E70000B0B5002900F082807A
:104D50000D460168044671B3002000BFA9422CD063
:104D6000096801300029F9D1A168814225D1616823
:104D7000002200292A6069D140F2984203200021D4
:104D8000C2F20B4224FA01F313540138431C01F11F
:104D90000801F7D14DF23040C2F20A40026840F6F5
:104DA000D030C2F20B40036840F29841C2F20B418E
:104DB0004FF2040020E0A06808B340F298420320BC
:104DC0000021C2F20B4200BF24FA01F31354013850
:104DD000431C01F10801F7D14DF23040C2F20A4004
:104DE000026840F6D030C2F20B40036840F29841AE
:104DF000C2F20B414FF20100BDE8B04018476168B4
:104E00000020286009B340F2984C03200022C2F22F
:104E10000B4C00BF21FA02F30CF800300138431CA0
:104E200002F10802F6D14DF23040C2F20A400268A7
:104E300040F6D030C2F20B40036840F29841C2F213
:104E40000B414FF204009847A068214601300D60E5
:104E5000C4E90150B0BD40F6D033C2F20B431B6829
:104E6000184740F6D030C2F20B40C06800474DF200
:104E70003863C2F20A431B6833B18C46596819B1D2
:104E800091F82013090700D4704740F6D031C2F2E0
:104E90000B418B6B11466246184740F6D031C2F287
:104EA0000B418968084740F6D031C2F20B4149688E
:104EB000084700002DE9F041FFF7D3FFFFF7D1FFCE
:104EC0004DF23867C2F20A473A68D2F8AC4024B3D0
:104ED00005460E464FF47A78D4E904012A1A76EB97
:104EE00001021CD3204616F09BF9E06820F04040F8
:104EF00030B1E0FB08562046C4E9045615F0CEFA5E
:104F0000616809B1A0688847FFF7ABFF3A680546BA
:104F1000D2F8AC400E46002CDED1BDE8F081BDE8F1
:104F2000F04100F075B80000F0B581B004460068AB
:104F30000D464FF0000138B1024600BFAA4206D02C
:104F400012680131002AF9D1A268914220D040F2C2
:104F5000984203200021C2F20B4200BF24FA01F361
:104F600013540138431C01F10801F7D14DF23040D0
:104F7000C2F20A40026840F6D030C2F20B40036829
:104F800040F29841C2F20B414FF20100984720686D
:104F90000021296010B12746286023E0274657F8F2
:104FA000040FF0B140F2984303210022C2F20B43F8
:104FB00020FA02F65E5401394E1C02F10802F7D1C4
:104FC0004DF23040C2F20A40026840F6D030C2F2E0
:104FD0000B40036840F29841C2F20B414FF20400CB
:104FE00098472560A0683D600130A06001B0F0BD29
:104FF000002918BF0846006870474DF23860C2F2B9
:105000000A4000684AF63101C0F6390181657047EF
:1050100040F6D032C2F20B421269104740F6D0314E
:10502000C2F20B41D1E90501084740F6D031C2F286
:105030000B414869C96908472DE9F0419846164671
:105040000F46054616F0ECF8EC686F606000AE6045
:105050000BD54FF47A704146002C48BF01FB00F19C
:10506000A00F60F39F710C46E960FFF7FAFE02465D
:1050700044F24020C0F20F00B4F1FF3FC8BF4FF42C
:105080007A70E0FB08212846C5E90421BDE8F0411B
:1050900015F004BA10B54DF23860C2F20A4000684B
:1050A000D0F8AC0030B100BF046816F0B9F8002C9D
:1050B0002046F9D110BD10B5044616F0B1F8E068ED
:1050C00000F04040E06010BD4FF0000CC0E900C1AE
:1050D000591E8260CAB2022AC0F810C0C0F814C0BB
:1050E00003D849B202A252F821C0C0F80CC07047E0
:1050F0000000008000000040000000C028B1D0E99E
:105100000401084318BF01207047002070472DE9B3
:10511000F0414DF23864C2F20A44154622681AB3CF
:10512000804692F8E10080071ED440F6D037C2F2E4
:105130000B47F86BC0B1786CB0B1386CA0B10E46BB
:10514000D7E9050188473046294615F083FD2068D8
:10515000D0F8B81019B1FB6B786C42469847786963
:10516000F969BDE8F0410847BDE8F08183B080B53A
:1051700081B0844603A80EC003AA012061460092B4
:10518000FFF7C5FF01B0BDE8804003B070470000E5
:1051900080B503688B4212D0ABB11A461B688B42B4
:1051A000FAD14368D1F800C08B42C2F800C008BFF2
:1051B00042608268013A82600020086001E0FFF7E7
:1051C00057FD012080BD002080BDEFF3148010F05A
:1051D000020F0CBFEFF30880EFF309800EF005B962
:1051E00070471CB514460A4600930021234600F080
:1051F0006EF81CBD10B541F2FC434FF6FC74C35869
:1052000004EA9333D41DB3EBD40F01D2294C07E049
:10521000013A002442EA01430021122205F009FC70
:10522000204610BD10B541F2FC434FF6FC74C35844
:1052300004EA9333D41DB3EBD40F01D21D4C07E025
:10524000013A002442EA01430021122205F0F1FB59
:10525000204610BD10B541F2FC434FF6FC74C35814
:1052600004EA9333D41DB3EBD40F01D2114C07E001
:10527000013A002442EA01430021122205F0D9FB41
:10528000204610BD10B541F2FC434FF6FC74C358E4
:1052900004EA9333D41DB3EBD40F01D2054C07E0DD
:1052A000013A002442EA01430021122205F0C1FB29
:1052B000204610BD0D00320013460A46002100F0C2
:1052C00012B842EA011300213D2205F0B2BB1203DD
:1052D00042EA0151009A41EA031141EA0203002126
:1052E000362205F0A6BB120142EA01513D220DF023
:1052F0009CB8120342EA015130220CF0ABBD1203FC
:1053000042EA0151009A41EA031141EA02030021F5
:10531000372205F08EBB120342EA0151009A41EA9E
:10532000031141EA020300213A2205F082BB0B4639
:105330000021132205F07DBB0B460021132205F04E
:1053400078BB0B460021132205F073BB0B460021EE
:10535000132205F06EBB42EA01330021002205F062
:1053600068BB42EA01330021002205F062BB120152
:1053700042EA013120220DF058B8120142EA01310F
:1053800020220CF067BD002121224CF2CF0305F052
:1053900050BB090341EA021121220DF05CBC12014D
:1053A00042EA013123220DF040B8090341EA02111B
:1053B000242201F10F03002105F03BBB090341EA60
:1053C000021124220DF047BC42EA013300213022B1
:1053D00005F02FBB42EA01330021302205F029BB42
:1053E00042EA01330021302205F023BB13460A466E
:1053F0000021FFF77EBF00211122002305F019BB19
:1054000000211122002305F014BB002110220023EB
:1054100005F00FBB00211022002305F00ABB42EA71
:1054200001330021282205F004BB4B030021802218
:1054300005F0FFBA520342EA81630021802205F0A1
:10544000F8BA520342EA81630021802205F0F1BAE2
:10545000520342EA81630021802205F0EABA0B037D
:105460000021352205F0E5BA0B030021352205F0B5
:10547000E0BA0B030021342205F0DBBA0B03002154
:10548000342205F0D6BA0B030021342205F0D1BA3C
:105490001CB514460A46009300212346FFF72FFF50
:1054A0001CBD120142EA013137220CF0D3BC0B467D
:1054B00000213F2205F0BDBA0B4600213F2205F036
:1054C000B8BA120142EA013133220CF0C3BC1CB558
:1054D0000024019401A877F090FF0199002818BFDB
:1054E000214608461CBD77F08DBF2DE9F843904654
:1054F0008946D0E9001201F03F04417B62F30D249C
:1055000061B1017B002918BF04F58014816801F0A6
:105510000F0144EA014101F5800402E0816861F372
:105520001444016908290AD1D0E90576C56905F551
:10553000FA623846314606F0A5FB010606E0D0E9DE
:1055400005764FF0E062C56902EA016141EA0400B4
:1055500005F07F01C9F8000007F01F0066F30B207B
:1055600040EA0140C8F80000BDE8F88300210429A2
:1055700008D081F00F020131835C01338354DAB229
:105580009A42F4D170470000B0B504460068B0F10B
:10559000FF3FC8BFB0BD2A4D0BF031FE4FF0605346
:1055A000A8470BF02CFE4FF05053A8470BF027FEF6
:1055B0004FF04053A8470BF022FE4FF03053A8475E
:1055C0000BF01DFE4FF02053A8470BF018FE4FF0D4
:1055D0001053A8470BF013FE4FF00053A8470BF0F1
:1055E0000EFE4FF0E053A8470BF009FE4FF0C053FA
:1055F000A8470BF004FE4FF0A053A8470BF0FFFDA7
:105600004FF08053A8470BF0FAFD4FF04063A847D6
:105610000BF0F5FD4FF00063A8470BF0F0FD4FF0E5
:105620008063A8470BF0EBFD0023A84709480F2132
:10563000006882082046BDE8B040FFF702BF00BF07
:1056400033AA3808034A00210160116081600020FC
:10565000704700BF880E0B242DE9F84F044608461A
:10566000164600F0B3F8584F002E6AD005460028C1
:1056700067D07068002864D0B668002E61D016F03C
:10568000CBFE8246304616F0C7FE6E688046204646
:105690000E210BF0A9FD08B1BDE8F88F20460821C6
:1056A0000BF0A2FD0028F7D106F1010920460D21DB
:1056B0004A46FFF7B7FD0028EED1204609210BF03E
:1056C00093FD0028E8D120460A210BF08DFD00282B
:1056D000E2D120460B210BF087FD0028DCD12046CB
:1056E0000C210BF081FD0028D6D1286916F094FE1C
:1056F000DFF840BA024620460E213346D847686993
:1057000016F08AFE024620460D214B46D847204619
:105710000B2152463346D84720460C214246334699
:10572000D84720460B2105F063F950B920460B21DC
:105730000E2205F057F920B120460C2105F058F94A
:1057400010B13846BDE8F88F20460C210E2205F036
:1057500049F9002838469FD0204609210C223346BB
:1057600001F0FEFC002897D120460A210B22334687
:1057700001F0F6FC00288FD1A86A16F04DFE0CF05F
:105780005BFB0CF0B3FD20460A210A220B23009696
:1057900000F016FE00287FF47FAFE86A16F03CFEAA
:1057A0000CF04AFB0CF0A2FD204609210A2205F06C
:1057B00013F9054620464FF4FE41FFF7BDFD002DCD
:1057C00018BF0027BDE700BF0B00320000F0FE014C
:1057D00000EB4002054B063918BF03EB02110138FC
:1057E000072828BF00210846704700BFE0BF4408D3
:1057F0002DE9F04F85B0814608461D461746FFF754
:10580000E5FF83467348002F00F10A0600F0A980E7
:10581000BBF1000F00F0A580384616F0FDFDDBF867
:105820000470804648460A213A46FFF7FBFC0646CC
:10583000002840F0968007F1070A484609212AF01F
:1058400007042246FFF7EEFC0646002840F0898058
:1058500041F20400CDE9024804974FF0805209EB71
:105860000008D8F88004D9F8001022EAC161084382
:10587000D8F8E014C1F30D4100EB810745B10E9853
:105880004FEADA023946A8470028524E64D11DE09B
:10589000DDF810A00026514D00204E4CBAF1010F4A
:1058A00012DB88B9534648464B492A460097BAF15D
:1058B000200FA8BF202302F049FC002818BF26466D
:1058C000AAF1200A0437E9E7002E45D1484609210C
:1058D00005F056F8049C0298A04210D9001B4FF026
:1058E0000051802241EA40334846002105F0A1F8EA
:1058F00048460021232249F2980305F09AF84846C9
:105900000A210922FFF766FDD8F800000028FBD124
:1059100048460E212246FFF785FC0646039F00BB42
:10592000DBF8180016F078FD024648460E212346A3
:1059300005F09FF848460A210E2205F053F8A0B161
:1059400048464FF48041FFF7F7FC484639460A22A3
:10595000234605F027F8002648464FF4C061FFF7BC
:10596000EBFC304605B0BDE8F08F651C48460D21C4
:105970000BF080FE06460028F3D1DBF81C0016F081
:105980004BFD024648460D212B4605F072F848466D
:1059900008212246FFF746FC06460028E1D148468A
:1059A00008210A22FFF716FD9BF80C0001F0D2FB3C
:1059B000204601F0B1FB48460A210822234600F0A8
:1059C000CFFB06460028CCD148464FF40451FFF7E0
:1059D000B3FCB5E7010032008D0B746CE146D25286
:1059E0002DE9F04F85B0804608469A46164689460E
:1059F000FFF7ECFEBAF1000F534C18BF002E03D195
:105A0000204605B0BDE8F08F83460028F8D0DAF8CC
:105A10000450002DF4D0DAF80870002FF0D04B4C71
:105A20003046A04706462846A047039038462746FA
:105A3000A047DBF80450049040460E210BF01AFEFC
:105A400004460028DCD1404609210BF013FE044631
:105A50000028D5D16A1C40460D210292FFF7E2FBD7
:105A600004460028CCD140460B210BF003FE04462F
:105A70000028C5D140460C210BF0FCFD044600284F
:105A8000BED1DBF81000B847314C024640460E212B
:105A90002B46A047DBF81800B847024640460921CC
:105AA0002B46A047DBF81400B847024640460D21BC
:105AB000029BA047DBF82000B847024640460B2176
:105AC0002B46A047DBF82400B847024640460C218D
:105AD0002B46A047284601F01FFB9BF80C0001F065
:105AE00039FB40460A210BF0C5FD044600287FF42F
:105AF00087AF40460A2132462B4604F0BAFF092000
:105B00000B210C220A23CDE90005404601F064FA7E
:105B1000044600287FF474AF404603990B222B46BD
:105B200004F040FF404604990C222B4604F03AFF53
:105B3000002440464FF4FC418AF801908AF8004066
:105B4000FFF7FAFB5CE700BF0B00320019C439080D
:105B500073AA38082DE9F04FA9B015468A4A804645
:105B6000002902F10A006ED0002D6CD01E46002BD9
:105B700069D0DDF8C890B9F1000F64D0339F002FD1
:105B800061D0824C08469246A04702903046A0471A
:105B900003903846A0470746D9F80C00A047834633
:105BA00099F80100FFF712FE00284AD00646446823
:105BB0000DF1520016F00AFC269004A816F006FC1F
:105BC00099F80110279025AB40463A46FFF708FFA9
:105BD000C8BB40460E210CF086FBA0BBB06916F096
:105BE000F5FB024640460E210CF023F9621C4046AC
:105BF0000D21FFF7FFFA30BBF06916F0E7FB024614
:105C000040460D210CF015F9404609210CF06BFBC4
:105C1000C8B940460A210CF066FBA0B9269A404656
:105C200009210CF006F94046092104F0E1FE68B1B3
:105C30004FF0000A40464FF4CC41FFF778FB504646
:105C400001E00AF1090029B0BDE8F08F40460821C3
:105C50000CF049FB0028F6D1ED0040460B210BF07B
:105C6000C0FA0028EFD1404609210CF0BCFC002806
:105C70006DD00CF017FE404608215A460CF0D9F8BA
:105C8000022001F067FA40460A2108220923009405
:105C900000F096FB0028D6D140460B21029A2B46F5
:105CA00004F0E7FE40460B2104F06AFEA5420AD943
:105CB000291B4046FFF7B9FB4046002123224BF247
:105CC000B00304F0B6FE40460B210CF08CFC58B932
:105CD000404608210B220CF0F6FE0B210822234639
:105CE00000F03EFA0028AED1404609213A460CF0B9
:105CF000A0F840460A210B220A2300F01DFA404674
:105D000000210CF0F0FA00289DD1404600210A2223
:105D10000CF0D9FE0A2100220923009400F0A0FA19
:105D2000002890D140460121FFF701FB40460A219F
:105D300004F05EFE08BBE01D03990A222346C0085A
:105D40000144404604F02EFE4FF0000A15E04046A4
:105D5000082109220CF0B7FE09210822234600F091
:105D6000FFF900287FF46FAF0CF09CFD404609213D
:105D700004F03EFE00283FF47EAF40464FF4106131
:105D8000FFF7D5FA56E700BF01003200CDC339084E
:105D90002DE9F04F87B09946E44B04460029184698
:105DA00000F09680002A00F09380B9F1000F00F017
:105DB0008F800D461099002900F08A80119F06946B
:105DC000002F00F08580DA4E10469B46B04704460F
:105DD0002846B04782467868B0470590B868B04713
:105DE00005467878FFF7F2FC00286FD0CDE9035420
:105DF00007464568022001F0ADF9284601F08CF90C
:105E000006980E210BF0EDF9002861D1B86916F063
:105E1000DDFA069C02460E212B46204604F029FEA0
:105E200005F1010820460D214246FFF7E3F900285D
:105E30004ED1F86916F0CAFA069C02460D21434677
:105E4000204604F016FE204604210BF0CAF9002873
:105E50003ED1069805210BF0C4F9C8BBE81D069C8D
:105E6000042152462B46C608204604F002FE0AEBE7
:105E70000602204605212B4604F0FBFD20460421A6
:105E800004F0B6FD8246204604210CF0ACFBBAF1CA
:105E9000000F18BFDA46002808BFDA462046052161
:105EA00004F0A6FD002818BFDA46204605210CF0B4
:105EB0009AFB002808BFDA46BAF1000F0BD046F271
:105EC00030012046FFF733FA504601E0ABF1010004
:105ED00007B0BDE8F08F204606210BF082F90028BC
:105EE000F6D1069807210BF07CF90028F0D106982E
:105EF00009210BF076F90028EAD106980A210BF067
:105F000070F90028E4D106980B210BF06AF90028FB
:105F1000DED106980C210BF064F90028D8D1069C3C
:105F200006212046FFF7A5FA4FEAC90620460821B8
:105F30003246FFF75FF90028CAD1069C08212046A7
:105F4000FFF797FA20460821049A334604F091FDA2
:105F50002046082104F014FD2046082104F048FDE5
:105F60008146AE420BD9711B069E3046FFF75DFAA3
:105F700030460021232248F2800304F05AFD069E99
:105F8000062108223046FFF71FFA30464FF4807191
:105F9000FFF7CDF9304608210BF023F9002897D1FF
:105FA000069800212A464646FFF724F900288FD19B
:105FB000069806210CF017FB88B9069C08210622DA
:105FC0002046FFF701FA204604F091FD2046062105
:105FD00008222B4600F0C4F800287FF479AF069C15
:105FE000002135220023204604F023FD0BF03BFB6B
:105FF00000287FF46DAF0698062106220523009540
:1060000000F0DEF900287FF463AF06980721042230
:106010000523009500F0D4F900287FF459AF387BB0
:1060200001F098F8DFF808B13869D847DFF8048143
:10603000069C02460E212B462046C0477869D84769
:10604000024620460D213346C047386AD8470246EB
:10605000204609212B46C047786AD8470246204689
:106060000A212B46C04720460B21059A2B46C047E4
:1060700020460C21039A2B46C047082620460921BA
:106080000A220623CDE9006500F0A6FF00287FF470
:106090001FAF06980B210C220723CDE9006500F005
:1060A0009BFF00287FF414AFB9F1000F14D00698BD
:1060B00005210B22FFF788F9069C4FF480712046DA
:1060C000FFF735F920460521042204F085FC1099DC
:1060D000087047F6F161F4E6069C00210C220A23C1
:1060E000204601F043F8204605210B22092301F048
:1060F0003DF80BF0B8FA00287FF4EAAE06980521C7
:1061000005222B4601F02CF800287FF4E1AE069C16
:10611000052105220923204601F028F82046052103
:1061200005220B2301F022F8C6E700BF0B00320066
:10613000CDC3390873AA38087CB50C460546FFF76D
:1061400050F82846042122460E230E26FFF7CBF8EE
:1061500028460321224623460096FFF7D0F87CBD4F
:10616000F8B51D460CF045FC204604213A46FFF7E1
:10617000F2F8204603213246FFF7EDF86A00204688
:106180000221FFF767F8064600285FD1204601216B
:106190000BF02DF80646002858D1204600212A464B
:1061A000FFF748F92046042103220023FFF7F7F800
:1061B00020460021332242F24D0304F03AFC2046EF
:1061C000012102220023FFF7EAF8204600213322B2
:1061D00042F21E0304F02DFC20460221FFF7B1F825
:1061E0000235204601210BF002F8064670BB20461E
:1061F00000210AF0FCFF064640BB154D2046002159
:10620000032202230026A8472046012100220E2354
:10621000A847114F0F4B204600210322B8472046C4
:10622000002101220E23A8470C4B204600213022DA
:10623000B8472046002130224FF44113B84720468A
:106240000721FFF77EF82046FFF7D5F83046F8BD66
